{
  "_format": "hh-sol-artifact-1",
  "contractName": "XineteStorage",
  "sourceName": "contracts/XineteStorage.sol",
  "abi": [
    {
      "anonymous": false,
      "inputs": [
        {
          "indexed": true,
          "internalType": "address",
          "name": "user",
          "type": "address"
        },
        {
          "indexed": false,
          "internalType": "string",
          "name": "cid",
          "type": "string"
        }
      ],
      "name": "CIDRemoved",
      "type": "event"
    },
    {
      "anonymous": false,
      "inputs": [
        {
          "indexed": true,
          "internalType": "address",
          "name": "user",
          "type": "address"
        },
        {
          "indexed": false,
          "internalType": "string",
          "name": "cid",
          "type": "string"
        }
      ],
      "name": "CIDStored",
      "type": "event"
    },
    {
      "inputs": [
        {
          "internalType": "address",
          "name": "user",
          "type": "address"
        }
      ],
      "name": "getCIDs",
      "outputs": [
        {
          "internalType": "string[]",
          "name": "",
          "type": "string[]"
        }
      ],
      "stateMutability": "view",
      "type": "function"
    },
    {
      "inputs": [
        {
          "internalType": "address",
          "name": "user",
          "type": "address"
        },
        {
          "internalType": "string",
          "name": "cid",
          "type": "string"
        }
      ],
      "name": "removeCID",
      "outputs": [],
      "stateMutability": "nonpayable",
      "type": "function"
    },
    {
      "inputs": [
        {
          "internalType": "string",
          "name": "cid",
          "type": "string"
        }
      ],
      "name": "storeCID",
      "outputs": [],
      "stateMutability": "nonpayable",
      "type": "function"
    },
    {
      "inputs": [
        {
          "internalType": "address",
          "name": "user",
          "type": "address"
        },
        {
          "internalType": "string",
          "name": "cid",
          "type": "string"
        }
      ],
      "name": "verifyOwnership",
      "outputs": [
        {
          "internalType": "bool",
          "name": "",
          "type": "bool"
        }
      ],
      "stateMutability": "view",
      "type": "function"
    }
  ],
  "bytecode": "0x608060405234801561001057600080fd5b5061155d806100206000396000f3fe608060405234801561001057600080fd5b506004361061004c5760003560e01c806330c697d3146100515780636367da9c14610081578063b687c527146100b1578063ccfdd32b146100cd575b600080fd5b61006b60048036038101906100669190610a69565b6100e9565b6040516100789190610ae0565b60405180910390f35b61009b60048036038101906100969190610afb565b610160565b6040516100a89190610c69565b60405180910390f35b6100cb60048036038101906100c69190610a69565b610277565b005b6100e760048036038101906100e29190610c8b565b610644565b005b60008273ffffffffffffffffffffffffffffffffffffffff166001836040516101129190610d10565b908152602001604051809103902060009054906101000a900473ffffffffffffffffffffffffffffffffffffffff1673ffffffffffffffffffffffffffffffffffffffff1614905092915050565b60606000808373ffffffffffffffffffffffffffffffffffffffff1673ffffffffffffffffffffffffffffffffffffffff168152602001908152602001600020805480602002602001604051908101604052809291908181526020016000905b8282101561026c5783829060005260206000200180546101df90610d56565b80601f016020809104026020016040519081016040528092919081815260200182805461020b90610d56565b80156102585780601f1061022d57610100808354040283529160200191610258565b820191906000526020600020905b81548152906001019060200180831161023b57829003601f168201915b5050505050815260200190600101906101c0565b505050509050919050565b8173ffffffffffffffffffffffffffffffffffffffff163373ffffffffffffffffffffffffffffffffffffffff16146102e5576040517f08c379a00000000000000000000000000000000000000000000000000000000081526004016102dc90610e0a565b60405180910390fd5b8173ffffffffffffffffffffffffffffffffffffffff1660018260405161030c9190610d10565b908152602001604051809103902060009054906101000a900473ffffffffffffffffffffffffffffffffffffffff1673ffffffffffffffffffffffffffffffffffffffff1614610391576040517f08c379a000000000000000000000000000000000000000000000000000000000815260040161038890610e76565b60405180910390fd5b60008060008473ffffffffffffffffffffffffffffffffffffffff1673ffffffffffffffffffffffffffffffffffffffff16815260200190815260200160002080549050905060005b818110156105af5782805190602001206000808673ffffffffffffffffffffffffffffffffffffffff1673ffffffffffffffffffffffffffffffffffffffff168152602001908152602001600020828154811061043a57610439610e96565b5b906000526020600020016040516104519190610f68565b60405180910390200361059c576000808573ffffffffffffffffffffffffffffffffffffffff1673ffffffffffffffffffffffffffffffffffffffff1681526020019081526020016000206001836104a99190610fb8565b815481106104ba576104b9610e96565b5b906000526020600020016000808673ffffffffffffffffffffffffffffffffffffffff1673ffffffffffffffffffffffffffffffffffffffff168152602001908152602001600020828154811061051457610513610e96565b5b90600052602060002001908161052a91906111c3565b506000808573ffffffffffffffffffffffffffffffffffffffff1673ffffffffffffffffffffffffffffffffffffffff168152602001908152602001600020805480610579576105786112ab565b5b6001900381819060005260206000200160006105959190610854565b90556105af565b80806105a7906112da565b9150506103da565b506001826040516105c09190610d10565b908152602001604051809103902060006101000a81549073ffffffffffffffffffffffffffffffffffffffff02191690558273ffffffffffffffffffffffffffffffffffffffff167fd0d78b6cb9b39ea39b129abbc9828e2f0470677763179ae5d86ea0cdf906b92083604051610637919061135b565b60405180910390a2505050565b6000815111610688576040517f08c379a000000000000000000000000000000000000000000000000000000000815260040161067f906113c9565b60405180910390fd5b600073ffffffffffffffffffffffffffffffffffffffff166001826040516106b09190610d10565b908152602001604051809103902060009054906101000a900473ffffffffffffffffffffffffffffffffffffffff1673ffffffffffffffffffffffffffffffffffffffff1614610735576040517f08c379a000000000000000000000000000000000000000000000000000000000815260040161072c90611435565b60405180910390fd5b6000803373ffffffffffffffffffffffffffffffffffffffff1673ffffffffffffffffffffffffffffffffffffffff168152602001908152602001600020819080600181540180825580915050600190039060005260206000200160009091909190915090816107a59190611455565b50336001826040516107b79190610d10565b908152602001604051809103902060006101000a81548173ffffffffffffffffffffffffffffffffffffffff021916908373ffffffffffffffffffffffffffffffffffffffff1602179055503373ffffffffffffffffffffffffffffffffffffffff167fd8a0edc6ade10e42d7ab691902b8c1a635fabe45ace3609fc4fbfad7e424e42782604051610849919061135b565b60405180910390a250565b50805461086090610d56565b6000825580601f106108725750610891565b601f0160209004906000526020600020908101906108909190610894565b5b50565b5b808211156108ad576000816000905550600101610895565b5090565b6000604051905090565b600080fd5b600080fd5b600073ffffffffffffffffffffffffffffffffffffffff82169050919050565b60006108f0826108c5565b9050919050565b610900816108e5565b811461090b57600080fd5b50565b60008135905061091d816108f7565b92915050565b600080fd5b600080fd5b6000601f19601f8301169050919050565b7f4e487b7100000000000000000000000000000000000000000000000000000000600052604160045260246000fd5b6109768261092d565b810181811067ffffffffffffffff821117156109955761099461093e565b5b80604052505050565b60006109a86108b1565b90506109b4828261096d565b919050565b600067ffffffffffffffff8211156109d4576109d361093e565b5b6109dd8261092d565b9050602081019050919050565b82818337600083830152505050565b6000610a0c610a07846109b9565b61099e565b905082815260208101848484011115610a2857610a27610928565b5b610a338482856109ea565b509392505050565b600082601f830112610a5057610a4f610923565b5b8135610a608482602086016109f9565b91505092915050565b60008060408385031215610a8057610a7f6108bb565b5b6000610a8e8582860161090e565b925050602083013567ffffffffffffffff811115610aaf57610aae6108c0565b5b610abb85828601610a3b565b9150509250929050565b60008115159050919050565b610ada81610ac5565b82525050565b6000602082019050610af56000830184610ad1565b92915050565b600060208284031215610b1157610b106108bb565b5b6000610b1f8482850161090e565b91505092915050565b600081519050919050565b600082825260208201905092915050565b6000819050602082019050919050565b600081519050919050565b600082825260208201905092915050565b60005b83811015610b8e578082015181840152602081019050610b73565b60008484015250505050565b6000610ba582610b54565b610baf8185610b5f565b9350610bbf818560208601610b70565b610bc88161092d565b840191505092915050565b6000610bdf8383610b9a565b905092915050565b6000602082019050919050565b6000610bff82610b28565b610c098185610b33565b935083602082028501610c1b85610b44565b8060005b85811015610c575784840389528151610c388582610bd3565b9450610c4383610be7565b925060208a01995050600181019050610c1f565b50829750879550505050505092915050565b60006020820190508181036000830152610c838184610bf4565b905092915050565b600060208284031215610ca157610ca06108bb565b5b600082013567ffffffffffffffff811115610cbf57610cbe6108c0565b5b610ccb84828501610a3b565b91505092915050565b600081905092915050565b6000610cea82610b54565b610cf48185610cd4565b9350610d04818560208601610b70565b80840191505092915050565b6000610d1c8284610cdf565b915081905092915050565b7f4e487b7100000000000000000000000000000000000000000000000000000000600052602260045260246000fd5b60006002820490506001821680610d6e57607f821691505b602082108103610d8157610d80610d27565b5b50919050565b600082825260208201905092915050565b7f4f6e6c7920746865206f776e65722063616e2072656d6f76652074686569722060008201527f4349447300000000000000000000000000000000000000000000000000000000602082015250565b6000610df4602483610d87565b9150610dff82610d98565b604082019050919050565b60006020820190508181036000830152610e2381610de7565b9050919050565b7f43494420646f6573206e6f742062656c6f6e6720746f20757365720000000000600082015250565b6000610e60601b83610d87565b9150610e6b82610e2a565b602082019050919050565b60006020820190508181036000830152610e8f81610e53565b9050919050565b7f4e487b7100000000000000000000000000000000000000000000000000000000600052603260045260246000fd5b600081905092915050565b60008190508160005260206000209050919050565b60008154610ef281610d56565b610efc8186610ec5565b94506001821660008114610f175760018114610f2c57610f5f565b60ff1983168652811515820286019350610f5f565b610f3585610ed0565b60005b83811015610f5757815481890152600182019150602081019050610f38565b838801955050505b50505092915050565b6000610f748284610ee5565b915081905092915050565b6000819050919050565b7f4e487b7100000000000000000000000000000000000000000000000000000000600052601160045260246000fd5b6000610fc382610f7f565b9150610fce83610f7f565b9250828203905081811115610fe657610fe5610f89565b5b92915050565b600081549050610ffb81610d56565b9050919050565b60008190508160005260206000209050919050565b60008190508160005260206000209050919050565b60006020601f8301049050919050565b600082821b905092915050565b6000600883026110797fffffffffffffffffffffffffffffffffffffffffffffffffffffffffffffffff8261103c565b611083868361103c565b95508019841693508086168417925050509392505050565b6000819050919050565b60006110c06110bb6110b684610f7f565b61109b565b610f7f565b9050919050565b6000819050919050565b6110da836110a5565b6110ee6110e6826110c7565b848454611049565b825550505050565b600090565b6111036110f6565b61110e8184846110d1565b505050565b5b81811015611132576111276000826110fb565b600181019050611114565b5050565b601f8211156111775761114881611002565b6111518461102c565b81016020851015611160578190505b61117461116c8561102c565b830182611113565b50505b505050565b600082821c905092915050565b600061119a6000198460080261117c565b1980831691505092915050565b60006111b38383611189565b9150826002028217905092915050565b8181036111d15750506112a9565b6111da82610fec565b67ffffffffffffffff8111156111f3576111f261093e565b5b6111fd8254610d56565b611208828285611136565b6000601f8311600181146112375760008415611225578287015490505b61122f85826111a7565b8655506112a2565b601f19841661124587611017565b965061125086611002565b60005b8281101561127857848901548255600182019150600185019450602081019050611253565b868310156112955784890154611291601f891682611189565b8355505b6001600288020188555050505b5050505050505b565b7f4e487b7100000000000000000000000000000000000000000000000000000000600052603160045260246000fd5b60006112e582610f7f565b91507fffffffffffffffffffffffffffffffffffffffffffffffffffffffffffffffff820361131757611316610f89565b5b600182019050919050565b600061132d82610b54565b6113378185610d87565b9350611347818560208601610b70565b6113508161092d565b840191505092915050565b600060208201905081810360008301526113758184611322565b905092915050565b7f4349442063616e6e6f7420626520656d70747900000000000000000000000000600082015250565b60006113b3601383610d87565b91506113be8261137d565b602082019050919050565b600060208201905081810360008301526113e2816113a6565b9050919050565b7f43494420616c7265616479206578697374730000000000000000000000000000600082015250565b600061141f601283610d87565b915061142a826113e9565b602082019050919050565b6000602082019050818103600083015261144e81611412565b9050919050565b61145e82610b54565b67ffffffffffffffff8111156114775761147661093e565b5b6114818254610d56565b61148c828285611136565b600060209050601f8311600181146114bf57600084156114ad578287015190505b6114b785826111a7565b86555061151f565b601f1984166114cd86611002565b60005b828110156114f5578489015182556001820191506020850194506020810190506114d0565b86831015611512578489015161150e601f891682611189565b8355505b6001600288020188555050505b50505050505056fea2646970667358221220d1d9ea127f4adc26e23d9aee664cd6db2f1b21b98544a0017acc287360201a0764736f6c63430008130033",
  "linkReferences": {},
  "deployedLinkReferences": {}
}