{
  "_format": "hh-sol-artifact-1",
  "contractName": "XineteStorage",
  "sourceName": "contracts/XineteStorage.sol",
  "abi": [
    {
      "anonymous": false,
      "inputs": [
        {
          "indexed": true,
          "internalType": "address",
          "name": "user",
          "type": "address"
        },
        {
          "indexed": false,
          "internalType": "string",
          "name": "cid",
          "type": "string"
        }
      ],
      "name": "CIDRemoved",
      "type": "event"
    },
    {
      "anonymous": false,
      "inputs": [
        {
          "indexed": true,
          "internalType": "address",
          "name": "user",
          "type": "address"
        },
        {
          "indexed": false,
          "internalType": "string",
          "name": "cid",
          "type": "string"
        },
        {
          "indexed": false,
          "internalType": "string",
          "name": "hash",
          "type": "string"
        }
      ],
      "name": "CIDStored",
      "type": "event"
    },
    {
      "inputs": [
        {
          "internalType": "string",
          "name": "hash",
          "type": "string"
        }
      ],
      "name": "getCIDByHash",
      "outputs": [
        {
          "internalType": "string",
          "name": "",
          "type": "string"
        }
      ],
      "stateMutability": "view",
      "type": "function"
    },
    {
      "inputs": [
        {
          "internalType": "address",
          "name": "user",
          "type": "address"
        }
      ],
      "name": "getCIDs",
      "outputs": [
        {
          "internalType": "string[]",
          "name": "",
          "type": "string[]"
        }
      ],
      "stateMutability": "view",
      "type": "function"
    },
    {
      "inputs": [
        {
          "internalType": "address",
          "name": "user",
          "type": "address"
        },
        {
          "internalType": "string",
          "name": "cid",
          "type": "string"
        }
      ],
      "name": "removeCID",
      "outputs": [],
      "stateMutability": "nonpayable",
      "type": "function"
    },
    {
      "inputs": [
        {
          "internalType": "string",
          "name": "cid",
          "type": "string"
        },
        {
          "internalType": "string",
          "name": "hash",
          "type": "string"
        }
      ],
      "name": "storeCID",
      "outputs": [],
      "stateMutability": "nonpayable",
      "type": "function"
    },
    {
      "inputs": [
        {
          "internalType": "address",
          "name": "user",
          "type": "address"
        },
        {
          "internalType": "string",
          "name": "cid",
          "type": "string"
        }
      ],
      "name": "verifyOwnership",
      "outputs": [
        {
          "internalType": "bool",
          "name": "",
          "type": "bool"
        }
      ],
      "stateMutability": "view",
      "type": "function"
    }
  ],
  "bytecode": "0x608060405234801561001057600080fd5b50611965806100206000396000f3fe608060405234801561001057600080fd5b50600436106100575760003560e01c806330c697d31461005c5780636367da9c1461008c578063b687c527146100bc578063cdd5c0e3146100d8578063f7683dac146100f4575b600080fd5b61007660048036038101906100719190610c7e565b610124565b6040516100839190610cf5565b60405180910390f35b6100a660048036038101906100a19190610d10565b61019b565b6040516100b39190610e7e565b60405180910390f35b6100d660048036038101906100d19190610c7e565b6102b2565b005b6100f260048036038101906100ed9190610ea0565b61067f565b005b61010e60048036038101906101099190610f18565b61096f565b60405161011b9190610fab565b60405180910390f35b60008273ffffffffffffffffffffffffffffffffffffffff1660018360405161014d9190611009565b908152602001604051809103902060009054906101000a900473ffffffffffffffffffffffffffffffffffffffff1673ffffffffffffffffffffffffffffffffffffffff1614905092915050565b60606000808373ffffffffffffffffffffffffffffffffffffffff1673ffffffffffffffffffffffffffffffffffffffff168152602001908152602001600020805480602002602001604051908101604052809291908181526020016000905b828210156102a757838290600052602060002001805461021a9061104f565b80601f01602080910402602001604051908101604052809291908181526020018280546102469061104f565b80156102935780601f1061026857610100808354040283529160200191610293565b820191906000526020600020905b81548152906001019060200180831161027657829003601f168201915b5050505050815260200190600101906101fb565b505050509050919050565b8173ffffffffffffffffffffffffffffffffffffffff163373ffffffffffffffffffffffffffffffffffffffff1614610320576040517f08c379a0000000000000000000000000000000000000000000000000000000008152600401610317906110f2565b60405180910390fd5b8173ffffffffffffffffffffffffffffffffffffffff166001826040516103479190611009565b908152602001604051809103902060009054906101000a900473ffffffffffffffffffffffffffffffffffffffff1673ffffffffffffffffffffffffffffffffffffffff16146103cc576040517f08c379a00000000000000000000000000000000000000000000000000000000081526004016103c39061115e565b60405180910390fd5b60008060008473ffffffffffffffffffffffffffffffffffffffff1673ffffffffffffffffffffffffffffffffffffffff16815260200190815260200160002080549050905060005b818110156105ea5782805190602001206000808673ffffffffffffffffffffffffffffffffffffffff1673ffffffffffffffffffffffffffffffffffffffff16815260200190815260200160002082815481106104755761047461117e565b5b9060005260206000200160405161048c9190611250565b6040518091039020036105d7576000808573ffffffffffffffffffffffffffffffffffffffff1673ffffffffffffffffffffffffffffffffffffffff1681526020019081526020016000206001836104e491906112a0565b815481106104f5576104f461117e565b5b906000526020600020016000808673ffffffffffffffffffffffffffffffffffffffff1673ffffffffffffffffffffffffffffffffffffffff168152602001908152602001600020828154811061054f5761054e61117e565b5b90600052602060002001908161056591906114ab565b506000808573ffffffffffffffffffffffffffffffffffffffff1673ffffffffffffffffffffffffffffffffffffffff1681526020019081526020016000208054806105b4576105b3611593565b5b6001900381819060005260206000200160006105d09190610a69565b90556105ea565b80806105e2906115c2565b915050610415565b506001826040516105fb9190611009565b908152602001604051809103902060006101000a81549073ffffffffffffffffffffffffffffffffffffffff02191690558273ffffffffffffffffffffffffffffffffffffffff167fd0d78b6cb9b39ea39b129abbc9828e2f0470677763179ae5d86ea0cdf906b920836040516106729190610fab565b60405180910390a2505050565b60008251116106c3576040517f08c379a00000000000000000000000000000000000000000000000000000000081526004016106ba90611656565b60405180910390fd5b6000815111610707576040517f08c379a00000000000000000000000000000000000000000000000000000000081526004016106fe906116c2565b60405180910390fd5b600073ffffffffffffffffffffffffffffffffffffffff1660018360405161072f9190611009565b908152602001604051809103902060009054906101000a900473ffffffffffffffffffffffffffffffffffffffff1673ffffffffffffffffffffffffffffffffffffffff16146107b4576040517f08c379a00000000000000000000000000000000000000000000000000000000081526004016107ab9061172e565b60405180910390fd5b60006002826040516107c69190611009565b908152602001604051809103902080546107df9061104f565b905014610821576040517f08c379a00000000000000000000000000000000000000000000000000000000081526004016108189061179a565b60405180910390fd5b6000803373ffffffffffffffffffffffffffffffffffffffff1673ffffffffffffffffffffffffffffffffffffffff1681526020019081526020016000208290806001815401808255809150506001900390600052602060002001600090919091909150908161089191906117ba565b50336001836040516108a39190611009565b908152602001604051809103902060006101000a81548173ffffffffffffffffffffffffffffffffffffffff021916908373ffffffffffffffffffffffffffffffffffffffff160217905550816002826040516109009190611009565b9081526020016040518091039020908161091a91906117ba565b503373ffffffffffffffffffffffffffffffffffffffff167f2344deb5d6888c7197d2ce3ab6c1b836c72ec21ca02f94d5711cdc9e232cce19838360405161096392919061188c565b60405180910390a25050565b606060006002836040516109839190611009565b9081526020016040518091039020805461099c9061104f565b80601f01602080910402602001604051908101604052809291908181526020018280546109c89061104f565b8015610a155780601f106109ea57610100808354040283529160200191610a15565b820191906000526020600020905b8154815290600101906020018083116109f857829003601f168201915b505050505090506000815111610a60576040517f08c379a0000000000000000000000000000000000000000000000000000000008152600401610a579061190f565b60405180910390fd5b80915050919050565b508054610a759061104f565b6000825580601f10610a875750610aa6565b601f016020900490600052602060002090810190610aa59190610aa9565b5b50565b5b80821115610ac2576000816000905550600101610aaa565b5090565b6000604051905090565b600080fd5b600080fd5b600073ffffffffffffffffffffffffffffffffffffffff82169050919050565b6000610b0582610ada565b9050919050565b610b1581610afa565b8114610b2057600080fd5b50565b600081359050610b3281610b0c565b92915050565b600080fd5b600080fd5b6000601f19601f8301169050919050565b7f4e487b7100000000000000000000000000000000000000000000000000000000600052604160045260246000fd5b610b8b82610b42565b810181811067ffffffffffffffff82111715610baa57610ba9610b53565b5b80604052505050565b6000610bbd610ac6565b9050610bc98282610b82565b919050565b600067ffffffffffffffff821115610be957610be8610b53565b5b610bf282610b42565b9050602081019050919050565b82818337600083830152505050565b6000610c21610c1c84610bce565b610bb3565b905082815260208101848484011115610c3d57610c3c610b3d565b5b610c48848285610bff565b509392505050565b600082601f830112610c6557610c64610b38565b5b8135610c75848260208601610c0e565b91505092915050565b60008060408385031215610c9557610c94610ad0565b5b6000610ca385828601610b23565b925050602083013567ffffffffffffffff811115610cc457610cc3610ad5565b5b610cd085828601610c50565b9150509250929050565b60008115159050919050565b610cef81610cda565b82525050565b6000602082019050610d0a6000830184610ce6565b92915050565b600060208284031215610d2657610d25610ad0565b5b6000610d3484828501610b23565b91505092915050565b600081519050919050565b600082825260208201905092915050565b6000819050602082019050919050565b600081519050919050565b600082825260208201905092915050565b60005b83811015610da3578082015181840152602081019050610d88565b60008484015250505050565b6000610dba82610d69565b610dc48185610d74565b9350610dd4818560208601610d85565b610ddd81610b42565b840191505092915050565b6000610df48383610daf565b905092915050565b6000602082019050919050565b6000610e1482610d3d565b610e1e8185610d48565b935083602082028501610e3085610d59565b8060005b85811015610e6c5784840389528151610e4d8582610de8565b9450610e5883610dfc565b925060208a01995050600181019050610e34565b50829750879550505050505092915050565b60006020820190508181036000830152610e988184610e09565b905092915050565b60008060408385031215610eb757610eb6610ad0565b5b600083013567ffffffffffffffff811115610ed557610ed4610ad5565b5b610ee185828601610c50565b925050602083013567ffffffffffffffff811115610f0257610f01610ad5565b5b610f0e85828601610c50565b9150509250929050565b600060208284031215610f2e57610f2d610ad0565b5b600082013567ffffffffffffffff811115610f4c57610f4b610ad5565b5b610f5884828501610c50565b91505092915050565b600082825260208201905092915050565b6000610f7d82610d69565b610f878185610f61565b9350610f97818560208601610d85565b610fa081610b42565b840191505092915050565b60006020820190508181036000830152610fc58184610f72565b905092915050565b600081905092915050565b6000610fe382610d69565b610fed8185610fcd565b9350610ffd818560208601610d85565b80840191505092915050565b60006110158284610fd8565b915081905092915050565b7f4e487b7100000000000000000000000000000000000000000000000000000000600052602260045260246000fd5b6000600282049050600182168061106757607f821691505b60208210810361107a57611079611020565b5b50919050565b7f4f6e6c7920746865206f776e65722063616e2072656d6f76652074686569722060008201527f4349447300000000000000000000000000000000000000000000000000000000602082015250565b60006110dc602483610f61565b91506110e782611080565b604082019050919050565b6000602082019050818103600083015261110b816110cf565b9050919050565b7f43494420646f6573206e6f742062656c6f6e6720746f20757365720000000000600082015250565b6000611148601b83610f61565b915061115382611112565b602082019050919050565b600060208201905081810360008301526111778161113b565b9050919050565b7f4e487b7100000000000000000000000000000000000000000000000000000000600052603260045260246000fd5b600081905092915050565b60008190508160005260206000209050919050565b600081546111da8161104f565b6111e481866111ad565b945060018216600081146111ff576001811461121457611247565b60ff1983168652811515820286019350611247565b61121d856111b8565b60005b8381101561123f57815481890152600182019150602081019050611220565b838801955050505b50505092915050565b600061125c82846111cd565b915081905092915050565b6000819050919050565b7f4e487b7100000000000000000000000000000000000000000000000000000000600052601160045260246000fd5b60006112ab82611267565b91506112b683611267565b92508282039050818111156112ce576112cd611271565b5b92915050565b6000815490506112e38161104f565b9050919050565b60008190508160005260206000209050919050565b60008190508160005260206000209050919050565b60006020601f8301049050919050565b600082821b905092915050565b6000600883026113617fffffffffffffffffffffffffffffffffffffffffffffffffffffffffffffffff82611324565b61136b8683611324565b95508019841693508086168417925050509392505050565b6000819050919050565b60006113a86113a361139e84611267565b611383565b611267565b9050919050565b6000819050919050565b6113c28361138d565b6113d66113ce826113af565b848454611331565b825550505050565b600090565b6113eb6113de565b6113f68184846113b9565b505050565b5b8181101561141a5761140f6000826113e3565b6001810190506113fc565b5050565b601f82111561145f57611430816112ea565b61143984611314565b81016020851015611448578190505b61145c61145485611314565b8301826113fb565b50505b505050565b600082821c905092915050565b600061148260001984600802611464565b1980831691505092915050565b600061149b8383611471565b9150826002028217905092915050565b8181036114b9575050611591565b6114c2826112d4565b67ffffffffffffffff8111156114db576114da610b53565b5b6114e5825461104f565b6114f082828561141e565b6000601f83116001811461151f576000841561150d578287015490505b611517858261148f565b86555061158a565b601f19841661152d876112ff565b9650611538866112ea565b60005b828110156115605784890154825560018201915060018501945060208101905061153b565b8683101561157d5784890154611579601f891682611471565b8355505b6001600288020188555050505b5050505050505b565b7f4e487b7100000000000000000000000000000000000000000000000000000000600052603160045260246000fd5b60006115cd82611267565b91507fffffffffffffffffffffffffffffffffffffffffffffffffffffffffffffffff82036115ff576115fe611271565b5b600182019050919050565b7f4349442063616e6e6f7420626520656d70747900000000000000000000000000600082015250565b6000611640601383610f61565b915061164b8261160a565b602082019050919050565b6000602082019050818103600083015261166f81611633565b9050919050565b7f486173682063616e6e6f7420626520656d707479000000000000000000000000600082015250565b60006116ac601483610f61565b91506116b782611676565b602082019050919050565b600060208201905081810360008301526116db8161169f565b9050919050565b7f43494420616c7265616479206578697374730000000000000000000000000000600082015250565b6000611718601283610f61565b9150611723826116e2565b602082019050919050565b600060208201905081810360008301526117478161170b565b9050919050565b7f4861736820616c72656164792065786973747300000000000000000000000000600082015250565b6000611784601383610f61565b915061178f8261174e565b602082019050919050565b600060208201905081810360008301526117b381611777565b9050919050565b6117c382610d69565b67ffffffffffffffff8111156117dc576117db610b53565b5b6117e6825461104f565b6117f182828561141e565b600060209050601f8311600181146118245760008415611812578287015190505b61181c858261148f565b865550611884565b601f198416611832866112ea565b60005b8281101561185a57848901518255600182019150602085019450602081019050611835565b868310156118775784890151611873601f891682611471565b8355505b6001600288020188555050505b505050505050565b600060408201905081810360008301526118a68185610f72565b905081810360208301526118ba8184610f72565b90509392505050565b7f48617368206e6f7420666f756e64000000000000000000000000000000000000600082015250565b60006118f9600e83610f61565b9150611904826118c3565b602082019050919050565b60006020820190508181036000830152611928816118ec565b905091905056fea264697066735822122067a3d0c0fcd00cbce4d7b1cd622171e18ebcd41c177333aad686f0799bb4ed6f64736f6c63430008130033",
  "linkReferences": {},
  "deployedLinkReferences": {}
}